:020000040000FA
:10000000A0090020150100002F01000031010000AF
:1000100000000000000000000000000000000000E0
:10002000000000000000000000000000330100009C
:100030000000000000000000350100003701000052
:100040003901000039010000F9020000B10200008E
:1000500039010000000000003901000039010000F2
:1000600039010000390100003901000039010000A8
:100070003901000039010000390100003901000098
:100080003901000039010000390100003901000088
:100090003901000039010000390100003901000078
:1000A00039010000390100000000000000000000DC
:1000B0000000000000000000000000000000000040
:1000C0000348854600F084F800480047F50A000020
:1000D000A0090020401E00BF00BF00BF00BF00BF3E
:1000E00000BF00BF00BF00BF00BF00BF00BFF1D115
:1000F00070470000401E00BF00BF00BF00BF00BF30
:1001000000BF00BF00BF00BF00BF00BF00BFF1D1F4
:10011000704700000321094802680A43026008484A
:1001200002680A4302600748804707480047FEE725
:10013000FEE7FEE7FEE7FEE7FEE7000024050040DD
:1001400054050040C1020000C100000003460B43FB
:100150009B0703D009E008C9121F08C0042AFAD27D
:1001600003E00B780370401C491C521EF9D2704703
:10017000F0B51FB40646002082B005464024019128
:1001800000901BE0019922460F46304600F042F8ED
:10019000049A059B801A994110D3104619462246AD
:1001A00000F028F8361A8F410197224601200021DD
:1001B000009F00F01FF838184D4100902046641E43
:1001C0000028DFDC019B00982946324607B0F0BDCD
:1001D000064C0125064E05E0E36807CC2B430C3C9A
:1001E00098471034B442F7D3FFF76EFFA01B00000E
:1001F000C01B000010B5202A04DB0146203A9140C4
:10020000002010BD914020239C1A0346E34019436F
:10021000904010BD10B5202A04DB0846203AD0409B
:10022000002110BD0B46D340D0402024A21A91409B
:100230000843194610BD000010B5002819DA1A4A03
:1002400003071B0F083B9B089B00D2588307DC0E5B
:10025000FF23A3409A438B071B0E8407E40EA340A1
:100260001A43114B0407240F083CA408A4001A5198
:1002700018E00E4A03231B02D21883089B00D258B1
:100280008307DC0EFF23A3409A438B071B0E8407D2
:10029000E40EA3401A43054B032424021B198408CF
:1002A000A4001A5110BD00001CED00E000E100E0C8
:1002B00010B50021014800F049FD10BD003000409C
:1002C00010B500F0E1FB002805D007480749486059
:1002D000C8130749886100F0BBFB002802D0012049
:1002E0000449886010BD0000DFFF07C00005004022
:1002F000006C0040000600401FB5012149024A4839
:1003000000F08DFF00282FD0FF212531464800F056
:1003100068FF002828D0FF212531434800F069FFFD
:1003200081218900404800F070FF4048407D00284E
:1003300003D104213C4800F07EFF0220694608708A
:10034000394800F044FF03903848C17C6846017288
:100350003648C068019000203449C87408460168D6
:1003600042686846904725E004212F4800F057FF77
:1003700000281FD0FF2109312B4800F032FF002850
:1003800018D000F0C3FF2948C07C2849097D884265
:1003900010D12648407D002803D10421224800F0D6
:1003A0004AFF81218900204800F02FFF1F49087D66
:1003B00000F0E6FFFF211D311B4800F012FF00286E
:1003C00015D01A48807C1949098A884202DD01F05B
:1003D00095F90CE0FF211D31134800F00AFF134886
:1003E000807C002803D01149887C01F0B9F9FF21F5
:1003F00045310D4800F0F5FE002814D0FF214531AD
:10040000094800F0F6FE0948407D002803D000218D
:10041000054800F010FF0548C07C002803D00349C0
:10042000087D00F0ADFF1FBD0020004088010020C6
:100430000FB410B503A9044B044A029800F018F851
:1004400010BC08BC04B018473F0A0000440000205C
:1004500002E008C8121F08C1002AFAD1704770478D
:10046000002001E001C1121F002AFBD170470000EB
:10047000FFB58FB00F460446002606E025280AD0B7
:10048000129A11999047641C761C20780028F5D1A7
:10049000304613B0F0BD00250121A14A009500E0CF
:1004A0000543641C23780846203B98401042F7D14E
:1004B00020782E2815D1042005436078641C2A2852
:1004C0000AD101CF641C00900BE000990A2251432D
:1004D00030394018641C00902078014630390929D1
:1004E000F3D920786C280ED004DC4C2813D06A286D
:1004F00012D104E074280ED07A280DD10BE001202F
:100500004005054307E00121090562780D43824259
:1005100001D16D18641C641C2078864669284AD075
:1005200008DC0028B4D058286DD0632810D0642887
:1005300008D140E070286BD0732812D0752860D0A5
:10054000782860D0129A704611999047761CE5E0A1
:100550003878694608720020487202A8019001208C
:1005600003E0386801900020C0433F1D69070CD5A7
:10057000002500E06D1C00998D420FDA8542F9DB01
:100580000199495D0029F5D108E0002500E06D1CC6
:100590008542FCDB0199495D0029F8D1761907E015
:1005A000019801990078491C0191129A119990477C
:1005B0006D1EF5D2B2E00A20029000216802400FC1
:1005C000039102280CD001CFC117844600290DDA0F
:1005D0006246084652420021814194462D2008E09F
:1005E000FF1DFF08FF0003CF8446EFE7280504D571
:1005F0002B206A46107401203CE0E8073AD0202006
:10060000F7E70A2000E0102000210391029007E0A4
:10061000102002900021042005430820039100903F
:100620006802400F022810D001CF0021844600202C
:100630000D9028071FD5704670280CD0029A102004
:10064000039B42401A430CD015E0FF1DFF08FF003A
:1006500003CF8446EBE740206A46107401200D90DA
:100660000CE06046084306D030206A46107470469D
:10067000507402200D907046582804D029A0019093
:100680000DA80E900DE02CA0F9E76046039B029A9E
:10069000FFF76EFD019B84469B5C0E9A521E0E92E4
:1006A000137060460843F0D10E9805A9081A20304F
:1006B0000190680701D5009801E0012000900199A0
:1006C000884203DD01460198081A00E00020002559
:1006D000009006E004A8129A405D119990476D1CA5
:1006E000761C0D988542F5DB04E0129A30201199B2
:1006F0009047761C0099481E00900029F5DC08E020
:100700000E980E990078491C0E91129A11999047F3
:10071000761C0199481E01900029F1DC641CB4E6A6
:1007200009280100303132333435363738396162C7
:10073000636465660000000030313233343536378B
:1007400038394142434445460000000042791823AD
:100750005A43034BD218111D01228A7070470000C2
:100760007001002070B5044660791821484314498F
:100770004018051DE978206800F004FD202120685C
:1007800000F022FD08202873FF201D30E881E98950
:10079000206800F004FD607980000A4908580028AC
:1007A00009D02969206800F0FDFC802028612969B2
:1007B000206800F0FCFC204600F0E8FF70BD00005F
:1007C000700100201400002018B500BF0F235B0546
:1007D0000A4CE3600023A36000BF012400946B4631
:1007E0001B78074B1860074B1960074B1A6072B6ED
:1007F00000BF6B461B78002BFBD118BD00050050D5
:1008000034000020380000203C00002070B5044671
:100810000D46204600F005F9002805D0294620465F
:1008200000F0F0F8002070BD0520FCE70346002929
:1008300001D10E207047002A03D0501E104000281E
:1008400001D00920F6E71960501E988000209860BA
:10085000D86000BFEEE770B504460D46204600F0B4
:10086000E0F8A188884205D82946204600F0DEF845
:10087000002070BD0420FCE7FFB589B004460D469A
:10088000174627480760002D02D107200DB0F0BDA4
:10089000A88882B223482968FFF7C8FF0646002EC1
:1008A00001D03046F2E7A88982B21F48A968FFF755
:1008B000BDFF0646002E01D03046E7E720221B4947
:1008C00001A8FFF743FCA06807902079002801D019
:1008D000012000E000206946087608A90C980870FD
:1008E0006079002801D00E2000E00020694648769B
:1008F000E0780390A07804902078029060780190CE
:100900000B4901A800F0CEFA0646002E01D0304671
:10091000BCE700F077FB0121064800F003FBB5E7D8
:100920000C0000205001002060010020D8190000B8
:10093000B91800001200002070B504460748047082
:10094000012100F06DFB0546112D04D1214604481C
:10095000FFF781FF0546284670BD0000110000200A
:100960006001002070B50446206800F0E6FB2068B6
:1009700000F000FC0021606800F0D2FBA06914497F
:10098000052212028918486200BF607D217D02465F
:100990000A430F4B05252D025B19DA6600BF0C4890
:1009A0006268216800F04AFC207D01280ED10021F8
:1009B000A06800F0B5FBE06800F0BFFBE06800F065
:1009C000D9FB0348A268E16800F016FC70BD000086
:1009D0000020004072B603480068401C01490860CE
:1009E000704700004000002005480068401E044990
:1009F000086008460068002800D162B67047000011
:100A000040000020826883881A4003689A5C0A705C
:100A10008268521C8260704701468A68C868801AE2
:100A2000704701468A68C868801A7047C268838820
:100A30001A4003689954C268521CC260704770B56E
:100A400004460D46E0B2FFF777FF204670BD000078
:100A50000C48008CC0B2012812D10A48808C0007D3
:100A6000000F00280CD10748806AF0210840402878
:100A700006D10448C06A0840002801D1012070470F
:100A80000020FCE7C00F00F01948008CC0B201281C
:100A90002CD11748808C0007000F002826D114485D
:100AA000806AF0210840002806D11148C06A084039
:100AB000002801D1012070470D48806AF0210840CC
:100AC000102806D10A48C06A0840002801D1012038
:100AD000F1E70748806AF0210840302806D1044831
:100AE000C06A0840002801D10120E4E70020E2E7C5
:100AF000C00F00F00EB5152400200090034601221F
:100B000011460190204600F0E5FA00BF15200121B2
:100B10008140234A916000BF00F098FE2148FFF712
:100B200087FC00F055FD5520029000240EE01E4881
:100B300004700020012302AA214600901B4800F007
:100B40009FF90A2000F036F8601CC4B27F2CEEDD5D
:100B500017480078002815D013E0152001238340A2
:100B600019460F4B5B68C340DA07D20F002A02D147
:100B70000B4B996001E00A4BD96000BF642000F084
:100B800019F8EAE7152400200090034601220146E7
:100B90000190204600F09EFA00BF00BFFEE7000073
:100BA00000050050401B000008000020000000204D
:100BB0000900002001B505E00098401E00900348A0
:100BC000FFF788FA00980028F6D108BDE703000077
:100BD00070B504460D4629462046FFF72DFB00BFA1
:100BE000E106C90E012088400549086000BF00BF2A
:100BF000E106C90E012088400249086000BF70BDAF
:100C000080E200E000E100E010B50446FF2105317C
:100C1000206800F0C4FAFF210931206800F0BFFA13
:100C2000FF211D31206800F0BAFAFF21253120682C
:100C300000F0B5FA607980000E490858002804D009
:100C400001214902206800F0B2FA206805210A0259
:100C50008218116000BF0221607918225043064AB1
:100C600011540021607918225043034A80184170C2
:100C700010BD00001400002070010020F8B50446EB
:100C80000D4616461F466079182148432949085CDD
:100C9000002801D00820F8BD002D03D160790001A3
:100CA000254945186079800024490E5060798000FC
:100CB00023490F506079800022490C502946204674
:100CC00000F0F4FB204805210907072212028918C9
:100CD0002A68920088500146052000070722120268
:100CE00080186A68920081502068A9680522120263
:100CF0008218516200BF20682A68696805231B02B8
:100D0000C3189A6005231B02C318D96000BF60791D
:100D100080000A490858002804D0297B0420205666
:100D2000FFF756FF0121607918225043014A115400
:100D30000020B0E770010020F81900001400002026
:100D4000180000201C0000200C060000F0B587B041
:100D500006460D4618206843444947183C1DFF21AC
:100D60002531304600F013FA0590E189304600F055
:100D70000EFA0490FF212531304600F010FAFF21D1
:100D80001D31304600F00BFAFF210931304600F0EA
:100D900006FAFF210531304600F001FA05980028D7
:100DA00002D1049800285ED00598002802D00520C2
:100DB000069006E02078002801D0022000E0032001
:100DC0000690A9002A4A5058069900F007FBA0781F
:100DD000002829D00020B870264801460EC9C068F6
:100DE00002930192009103906068019060890290E3
:100DF00000BF0921C9017118486C0921C901711886
:100E0000486400BF02210840002801D0022000E011
:100E1000042069460873A800174B1958A800174BFF
:100E20001A58684690471EE06089218988421ADB7B
:100E300000200090019002900390B8702078002864
:100E400001D0012000E00020694608706068019030
:100E500060890290A800084B1958A800074B1A583F
:100E60006846904700BF07B0F0BD00007001002049
:100E70001C000020A41A000018000020140000200C
:100E8000FFB583B004460D4616460C9F012000971F
:100E90000190324629462046069B00F0C3FB07B06E
:100EA000F0BD000070B504460D461A48807D00284C
:100EB00001D0082070BD002C00D1174C2046FFF750
:100EC00051FD144845601349206908600846406890
:100ED00000280AD0267F1149114800F09BF93146BD
:100EE0000220FFF775FE00BF00BF00BF00BF042057
:100EF0000B49052212028918086000BF00BF0020BC
:100F00000449C8748874012088750020487500BFA2
:100F1000D0E7000088010020B41A00008000020021
:100F200000200040F3B581B006463448C07C00285C
:100F300001D01120FEBD31490298C8740846C66030
:100F4000002008750846407D002801D100F02EFAE7
:100F50002A48406800284AD100BF00BFFF21253140
:100F6000274800F03EF90546FF210931244800F0EA
:100F700038F90746FF214531214800F032F904468F
:100F8000002F03D1002C01D1002DE7D0002D01D17D
:100F9000002C00D007E000F0B9F91848C07C1749D0
:100FA000097D8842D9DC00BFFF214531144800F09B
:100FB00020F9FF212531124800F01BF900200F49CC
:100FC000C874002D01D00320B4E7002C01D00F20FD
:100FD000B0E70A48407D002804D00021084800F00E
:100FE0002AF903E00421064800F025F904E08121F4
:100FF0008900034800F00EF900209BE788010020DB
:101000000020004010B50548407D002804D100F0C4
:10101000CDF901200149487510BD0000880100206C
:1010200070B504460D4600262848807C002801D073
:10103000112070BD254885748460002023490882F2
:10104000FF211D31224800F0D4F80821204800F08B
:10105000F2F800F053FB1D484068002833D115E03A
:1010600000BFFF211D311A4800F0BBF8002805D150
:101070001648008AFF2101318842F2D11348008AC4
:10108000FF210131884201D000F038FB0F48807CFD
:101090000E49098A8842E3DC0C48008AFF210131AD
:1010A000884201D10F260BE000BFFF211D31084807
:1010B00000F097F80028F8D00C21054800F0BBF8A4
:1010C0000020024988743046B3E700008801002000
:1010D00000200040F0B5059C55000D439E003543AF
:1010E00026023543069E3604354305263607072774
:1010F0003F02F6198700F551F0BDF0B5059C55008B
:101100000D439E00354326023543069E3604354383
:101110000526360707273F02F6198700F551F0BD6F
:101120007CB505460C460020009023460246014649
:1011300001902846FFF7E1FF7CBD1CB50446002066
:10114000009003460122114601902046FFF7D5FF8B
:101150001CBD000001218140014AD16070470000A0
:101160000005005001218140014A91607047000054
:101170000005005001218140014A91607047000044
:10118000000500500B22D201821891607047024680
:101190005058002801D0012070470020FCE70022B1
:1011A0004250704703221202821891607047032256
:1011B00012028218516070470122520212588A436B
:1011C00001235B021A5070470122425070470146CA
:1011D0000922D2018A1810680922D2018A181060E7
:1011E000704702465058002801D001207047002067
:1011F000FCE700224250704705231B02C318996088
:1012000005231B02C3181A617047032212028218B9
:1012100091607047032212028218516070470246A3
:1012200003200002101840680840002801D0012067
:1012300070470020FCE701224250704705231B0243
:10124000C318D96005231B02C3185A6170470000F8
:1012500070B5044660791821484311494018051DAE
:10126000FF200530E881E9892068FFF798FF607961
:1012700080000C490858002809D029692068FFF728
:1012800091FF0220286129692068FFF790FF202143
:101290002068FFF799FF14212068FFF795FF70BDC4
:1012A000700100201400002070B5044660791821F8
:1012B000484314494018051DE9782068FFF762FF8C
:1012C00020212068FFF780FF00202873FF200930CD
:1012D000E881E9892068FFF762FF607980000A49A8
:1012E0000858002809D029692068FFF75BFF04200F
:1012F000286129692068FFF75AFF204600F068F846
:1013000070BD0000700100201400002010B5FF2106
:1013100009310A48FFF76DFF00BF0848052109029F
:1013200040188069C0B20649C968054A127D8854D0
:101330000348007D401C0249087510BD0020004094
:101340008801002070B505466879182148430B498B
:101350004018041D28680521090241188969C9B28D
:101360006289606881546089401C6081608921893C
:10137000884202DA284600F02BF870BD7001002088
:101380001FB5044601206946087068460472064885
:10139000C068019000200449C8740846016842688A
:1013A000684690471FBD00008801002010B5FF214E
:1013B00025310648FFF71DFFFF2109310348FFF7DC
:1013C00018FF00210148FFF736FF10BD0020004044
:1013D00010B50446204600F0F1F910BDFEB50646F2
:1013E0000F46002001907079182148431649401893
:1013F000407800900098800014490D5800241AE0AD
:10140000E000285CB84215D1E000401941787079BD
:10141000182250430C4A80184170E000401940687F
:10142000002804D0E0004019416830468847012078
:10143000019006E0641C0098800005490858A0420D
:10144000DED800BFFEBD000070010020200000209B
:10145000901A0000F8B50446002760791821484327
:1014600010494018001D009000BF009AD1892068E3
:10147000FFF78DFE0646FF2125312068FFF787FE26
:101480000546781C07460849884201D3012000E040
:1014900000200543284630430028E6D02846012195
:1014A0004840F8BD70010020FF0F000070B50646EF
:1014B0000C462A48052109070722120289182268CA
:1014C00092008850052109070722120289186268D4
:1014D000920088502068FFF745FE6068FFF742FEE3
:1014E0001E48401C0521090707221202891822689C
:1014F00092008850052109070722120289186268A4
:10150000920088500420FEF7F5FD002518E0606881
:1015100013490969C140C907C90F002903D0002D2B
:1015200000D170BD0EE02068FFF714FE0420FEF726
:10153000E1FD2068FFF716FE0420FEF7DBFD6D1CC1
:10154000092DE4DB00BF6068FFF704FE0420FEF70E
:10155000D1FD6068FFF706FE00BFE2E70C06000061
:101560000005005070B504460D462078012802D0D1
:1015700002280FD108E0094801780948FEF758FF12
:1015800001200849087006E00448017806A0FEF72B
:101590004FFF00E000BF00BF70BD0000080000204A
:1015A000D41A0000090000204E6F2064657669633C
:1015B0006520726573706F6E64696E67206F6E2050
:1015C000616464726573733A20252378210D0A00E3
:1015D0007FB50D4B0FCB6C460FC400230B4A6946F9
:1015E0000B48FFF74BFB044600BF2546002D06D0F5
:1015F00000BF08A280212846FFF7E6F800BF00BF21
:101600000348FFF701FB7FBDC81900006515000006
:10161000000000202E2E5C2E2E5C6D61696E2E6304
:1016200000000000FFB583B005460F466879182119
:1016300048433049461800200290FFF7CBF9B078B4
:10164000002802D00120029001E00120B070FFF7D5
:10165000CBF90298002802D0112007B0F0BD341D4C
:10166000E7700698208105986060002060810C98E2
:1016700060700D9820700020A0702078002801D1A3
:10168000012000E0002001462846FFF7A7FE687908
:10169000800019490858002829D12078002801D055
:1016A000022000E00320019000BF2846FFF7D2FE91
:1016B000002806D1FF2125312868FFF770FD05209D
:1016C0000190E1892868FFF76AFD28460199FFF734
:1016D00085FEA078002803D00020B0700320BCE76E
:1016E000608921898842E0DB0020B07000BF0020C3
:1016F000B3E70000700100201400002010B5FF21A6
:101700001D310A48FFF775FD094880680849098AB4
:10171000445C0748008A401C05490882204603496A
:10172000052212028918C86100BF10BD00200040C8
:101730008801002070B5054668791821484307499B
:101740004018041D6089401C60816089218988429D
:1017500002DA284600F01AF870BD0000700100207F
:101760001FB50446002069460870684604720648A2
:101770008068019000200449887408460168426826
:10178000684690471FBD00008801002070B50446E0
:1017900060791821484308494018051D20686B8965
:1017A0006A68D15C052212028218D16100BF20460E
:1017B00000F004F870BD000070010020F8B5054687
:1017C0006879182148431F494018041D03212868DF
:1017D000FFF7F2FC6089401C218988421FD16078A4
:1017E00000281CD10226FF200530E081E18928680D
:1017F000FFF7D5FC6879800013490858002809D004
:1018000021692868FFF7CEFC022020612169286841
:10181000FFF7CDFC04212846FFF7E0FD00E001269C
:10182000286801214902095831430122520211500E
:1018300000BF277B2020207339462868FFF7C4FCAF
:10184000F8BD0000700100201400002030B587B002
:10185000114A07CA04AB07C300BF1048009001201B
:1018600001900F480290FF200130039003230D4A9E
:10187000694604A8FFF700F8044600BF00BF2546EC
:10188000002D06D000BF08A25A212846FEF79CFF73
:1018900000BF00BF07B030BDBC1900000A00002027
:1018A00050000020791900002E2E5C2E2E5C6D61F8
:1018B000696E2E63000000007CB504460E46207859
:1018C000012828D1606801782648FEF7C4FF054644
:1018D000002D08D00120694608700195684622490C
:1018E000096888470BE01F48FFF796F8012806D1E2
:1018F00000206946087068461B49096888471948EE
:10190000FFF78AF817498988884203D801211748C8
:10191000FFF708FB24E02078022808D16946087008
:10192000E0680190684610490968884718E0207807
:10193000002815D10E490F48FEF768FF002803D193
:1019400001210B48FFF76CFB0A48FFF765F80028F8
:1019500006D103206946087068460349096888472C
:101960007CBD0000500100200C000020120000206F
:10197000100000206001002010B5044620780128E6
:1019800009D002280FD100BF08A235216068FEF7F8
:101990001BFF00BF08E000BF04A239216068FEF70A
:1019A00013FF00BF00E000BF00BF10BD2E2E5C2E55
:1019B0002E5C6D61696E2E63000000000B09080A41
:1019C0000000000000509D00010000000200000027
:1019D0000000980101000000090000000B00000059
:1019E0000A000000080000000000000000000000E5
:1019F00000509D0003000000070000001E000000D2
:101A000000009801030000000001000065070000CD
:101A100001020000A91200000201000035170000B9
:101A200001020000A9120000000100008D17000053
:101A30000403000000000000050400005112000033
:101A400001020000D1130000030200004513000052
:101A50000403000000000000050400005112000013
:101A600003000000451300000200000035170000CD
:101A7000050000004D070000030000004D070000B6
:101A8000020000004D070000050000004D070000A7
:101A90000200000005000000040000000300000038
:101AA0000300000002000000000000000000000031
:101AB00000000000090000000B0000000A00000008
:101AC00008000000000000000000000000509D0021
:101AD000030000000D0A212A2A2A2A2A2A2A2A2A51
:101AE0002A2A2A2A2A2A2A2A2A2A2A2A2A2A2A2A56
:101AF0002A2A2A210D0A44657669636520666F7576
:101B00006E6420617420372D626974206164647290
:101B10006573733A20252378210D0A212A2A2A2A5F
:101B20002A2A2A2A2A2A2A2A2A2A2A2A2A2A2A2A15
:101B30002A2A2A2A2A2A2A2A210D0A0D0A00000006
:101B40001B5B324A1B5B3B480D0A2A204578616DBE
:101B5000706C6520746F2066696E6420545749204C
:101B60006465766963657320636F6E6E6563746523
:101B70006420746F200D0A2A207468652054574928
:101B80002062757320616E642074686569722061DB
:101B900064647265737365730D0A0D0A00000000BA
:101BA000C01B000000000020500000005004000096
:101BB000101C0000500000205009000060040000CC
:101BC00000300040030000000000000000000000A2
:101BD0000000000000000000000000000000000005
:101BE000081A0000181A0000401A0000601A0000CD
:101BF000781A000000000000000000000000000053
:101C00000000000000000000000000000024F400BC
:04000005000000C136
:00000001FF
